{
  "contractName": "ERC721EnumerablePausable",
  "abi": [
    {
      "inputs": [
        {
          "internalType": "string",
          "name": "name",
          "type": "string"
        },
        {
          "internalType": "string",
          "name": "symbol",
          "type": "string"
        },
        {
          "internalType": "string",
          "name": "baseTokenURI",
          "type": "string"
        }
      ],
      "stateMutability": "nonpayable",
      "type": "constructor"
    },
    {
      "anonymous": false,
      "inputs": [
        {
          "indexed": true,
          "internalType": "address",
          "name": "owner",
          "type": "address"
        },
        {
          "indexed": true,
          "internalType": "address",
          "name": "approved",
          "type": "address"
        },
        {
          "indexed": true,
          "internalType": "uint256",
          "name": "tokenId",
          "type": "uint256"
        }
      ],
      "name": "Approval",
      "type": "event"
    },
    {
      "anonymous": false,
      "inputs": [
        {
          "indexed": true,
          "internalType": "address",
          "name": "owner",
          "type": "address"
        },
        {
          "indexed": true,
          "internalType": "address",
          "name": "operator",
          "type": "address"
        },
        {
          "indexed": false,
          "internalType": "bool",
          "name": "approved",
          "type": "bool"
        }
      ],
      "name": "ApprovalForAll",
      "type": "event"
    },
    {
      "anonymous": false,
      "inputs": [
        {
          "indexed": false,
          "internalType": "address",
          "name": "userAddress",
          "type": "address"
        },
        {
          "indexed": false,
          "internalType": "address payable",
          "name": "relayerAddress",
          "type": "address"
        },
        {
          "indexed": false,
          "internalType": "bytes",
          "name": "functionSignature",
          "type": "bytes"
        }
      ],
      "name": "MetaTransactionExecuted",
      "type": "event"
    },
    {
      "anonymous": false,
      "inputs": [
        {
          "indexed": true,
          "internalType": "address",
          "name": "previousOwner",
          "type": "address"
        },
        {
          "indexed": true,
          "internalType": "address",
          "name": "newOwner",
          "type": "address"
        }
      ],
      "name": "OwnershipTransferred",
      "type": "event"
    },
    {
      "anonymous": false,
      "inputs": [
        {
          "indexed": false,
          "internalType": "address",
          "name": "account",
          "type": "address"
        }
      ],
      "name": "Paused",
      "type": "event"
    },
    {
      "anonymous": false,
      "inputs": [
        {
          "indexed": true,
          "internalType": "bytes32",
          "name": "role",
          "type": "bytes32"
        },
        {
          "indexed": true,
          "internalType": "bytes32",
          "name": "previousAdminRole",
          "type": "bytes32"
        },
        {
          "indexed": true,
          "internalType": "bytes32",
          "name": "newAdminRole",
          "type": "bytes32"
        }
      ],
      "name": "RoleAdminChanged",
      "type": "event"
    },
    {
      "anonymous": false,
      "inputs": [
        {
          "indexed": true,
          "internalType": "bytes32",
          "name": "role",
          "type": "bytes32"
        },
        {
          "indexed": true,
          "internalType": "address",
          "name": "account",
          "type": "address"
        },
        {
          "indexed": true,
          "internalType": "address",
          "name": "sender",
          "type": "address"
        }
      ],
      "name": "RoleGranted",
      "type": "event"
    },
    {
      "anonymous": false,
      "inputs": [
        {
          "indexed": true,
          "internalType": "bytes32",
          "name": "role",
          "type": "bytes32"
        },
        {
          "indexed": true,
          "internalType": "address",
          "name": "account",
          "type": "address"
        },
        {
          "indexed": true,
          "internalType": "address",
          "name": "sender",
          "type": "address"
        }
      ],
      "name": "RoleRevoked",
      "type": "event"
    },
    {
      "anonymous": false,
      "inputs": [
        {
          "indexed": true,
          "internalType": "uint256",
          "name": "tokenId",
          "type": "uint256"
        },
        {
          "indexed": true,
          "internalType": "bool",
          "name": "available",
          "type": "bool"
        }
      ],
      "name": "Stake",
      "type": "event"
    },
    {
      "anonymous": false,
      "inputs": [
        {
          "indexed": true,
          "internalType": "address",
          "name": "from",
          "type": "address"
        },
        {
          "indexed": true,
          "internalType": "address",
          "name": "to",
          "type": "address"
        },
        {
          "indexed": true,
          "internalType": "uint256",
          "name": "tokenId",
          "type": "uint256"
        }
      ],
      "name": "Transfer",
      "type": "event"
    },
    {
      "anonymous": false,
      "inputs": [
        {
          "indexed": false,
          "internalType": "address",
          "name": "account",
          "type": "address"
        }
      ],
      "name": "Unpaused",
      "type": "event"
    },
    {
      "inputs": [],
      "name": "DEFAULT_ADMIN_ROLE",
      "outputs": [
        {
          "internalType": "bytes32",
          "name": "",
          "type": "bytes32"
        }
      ],
      "stateMutability": "view",
      "type": "function",
      "constant": true
    },
    {
      "inputs": [],
      "name": "ERC712_VERSION",
      "outputs": [
        {
          "internalType": "string",
          "name": "",
          "type": "string"
        }
      ],
      "stateMutability": "view",
      "type": "function",
      "constant": true
    },
    {
      "inputs": [],
      "name": "MINTER_ROLE",
      "outputs": [
        {
          "internalType": "bytes32",
          "name": "",
          "type": "bytes32"
        }
      ],
      "stateMutability": "view",
      "type": "function",
      "constant": true
    },
    {
      "inputs": [],
      "name": "PAUSER_ROLE",
      "outputs": [
        {
          "internalType": "bytes32",
          "name": "",
          "type": "bytes32"
        }
      ],
      "stateMutability": "view",
      "type": "function",
      "constant": true
    },
    {
      "inputs": [
        {
          "internalType": "address",
          "name": "to",
          "type": "address"
        },
        {
          "internalType": "uint256",
          "name": "tokenId",
          "type": "uint256"
        }
      ],
      "name": "approve",
      "outputs": [],
      "stateMutability": "nonpayable",
      "type": "function"
    },
    {
      "inputs": [
        {
          "internalType": "address",
          "name": "owner",
          "type": "address"
        }
      ],
      "name": "balanceOf",
      "outputs": [
        {
          "internalType": "uint256",
          "name": "",
          "type": "uint256"
        }
      ],
      "stateMutability": "view",
      "type": "function",
      "constant": true
    },
    {
      "inputs": [
        {
          "internalType": "address",
          "name": "userAddress",
          "type": "address"
        },
        {
          "internalType": "bytes",
          "name": "functionSignature",
          "type": "bytes"
        },
        {
          "internalType": "bytes32",
          "name": "sigR",
          "type": "bytes32"
        },
        {
          "internalType": "bytes32",
          "name": "sigS",
          "type": "bytes32"
        },
        {
          "internalType": "uint8",
          "name": "sigV",
          "type": "uint8"
        }
      ],
      "name": "executeMetaTransaction",
      "outputs": [
        {
          "internalType": "bytes",
          "name": "",
          "type": "bytes"
        }
      ],
      "stateMutability": "payable",
      "type": "function",
      "payable": true
    },
    {
      "inputs": [
        {
          "internalType": "uint256",
          "name": "tokenId",
          "type": "uint256"
        }
      ],
      "name": "getApproved",
      "outputs": [
        {
          "internalType": "address",
          "name": "",
          "type": "address"
        }
      ],
      "stateMutability": "view",
      "type": "function",
      "constant": true
    },
    {
      "inputs": [],
      "name": "getChainId",
      "outputs": [
        {
          "internalType": "uint256",
          "name": "",
          "type": "uint256"
        }
      ],
      "stateMutability": "view",
      "type": "function",
      "constant": true
    },
    {
      "inputs": [],
      "name": "getDomainSeperator",
      "outputs": [
        {
          "internalType": "bytes32",
          "name": "",
          "type": "bytes32"
        }
      ],
      "stateMutability": "view",
      "type": "function",
      "constant": true
    },
    {
      "inputs": [
        {
          "internalType": "address",
          "name": "user",
          "type": "address"
        }
      ],
      "name": "getNonce",
      "outputs": [
        {
          "internalType": "uint256",
          "name": "nonce",
          "type": "uint256"
        }
      ],
      "stateMutability": "view",
      "type": "function",
      "constant": true
    },
    {
      "inputs": [
        {
          "internalType": "bytes32",
          "name": "role",
          "type": "bytes32"
        }
      ],
      "name": "getRoleAdmin",
      "outputs": [
        {
          "internalType": "bytes32",
          "name": "",
          "type": "bytes32"
        }
      ],
      "stateMutability": "view",
      "type": "function",
      "constant": true
    },
    {
      "inputs": [
        {
          "internalType": "bytes32",
          "name": "role",
          "type": "bytes32"
        },
        {
          "internalType": "uint256",
          "name": "index",
          "type": "uint256"
        }
      ],
      "name": "getRoleMember",
      "outputs": [
        {
          "internalType": "address",
          "name": "",
          "type": "address"
        }
      ],
      "stateMutability": "view",
      "type": "function",
      "constant": true
    },
    {
      "inputs": [
        {
          "internalType": "bytes32",
          "name": "role",
          "type": "bytes32"
        }
      ],
      "name": "getRoleMemberCount",
      "outputs": [
        {
          "internalType": "uint256",
          "name": "",
          "type": "uint256"
        }
      ],
      "stateMutability": "view",
      "type": "function",
      "constant": true
    },
    {
      "inputs": [
        {
          "internalType": "bytes32",
          "name": "role",
          "type": "bytes32"
        },
        {
          "internalType": "address",
          "name": "account",
          "type": "address"
        }
      ],
      "name": "grantRole",
      "outputs": [],
      "stateMutability": "nonpayable",
      "type": "function"
    },
    {
      "inputs": [
        {
          "internalType": "bytes32",
          "name": "role",
          "type": "bytes32"
        },
        {
          "internalType": "address",
          "name": "account",
          "type": "address"
        }
      ],
      "name": "hasRole",
      "outputs": [
        {
          "internalType": "bool",
          "name": "",
          "type": "bool"
        }
      ],
      "stateMutability": "view",
      "type": "function",
      "constant": true
    },
    {
      "inputs": [
        {
          "internalType": "address",
          "name": "owner",
          "type": "address"
        },
        {
          "internalType": "address",
          "name": "operator",
          "type": "address"
        }
      ],
      "name": "isApprovedForAll",
      "outputs": [
        {
          "internalType": "bool",
          "name": "",
          "type": "bool"
        }
      ],
      "stateMutability": "view",
      "type": "function",
      "constant": true
    },
    {
      "inputs": [],
      "name": "name",
      "outputs": [
        {
          "internalType": "string",
          "name": "",
          "type": "string"
        }
      ],
      "stateMutability": "view",
      "type": "function",
      "constant": true
    },
    {
      "inputs": [],
      "name": "owner",
      "outputs": [
        {
          "internalType": "address",
          "name": "",
          "type": "address"
        }
      ],
      "stateMutability": "view",
      "type": "function",
      "constant": true
    },
    {
      "inputs": [
        {
          "internalType": "uint256",
          "name": "tokenId",
          "type": "uint256"
        }
      ],
      "name": "ownerOf",
      "outputs": [
        {
          "internalType": "address",
          "name": "",
          "type": "address"
        }
      ],
      "stateMutability": "view",
      "type": "function",
      "constant": true
    },
    {
      "inputs": [],
      "name": "paused",
      "outputs": [
        {
          "internalType": "bool",
          "name": "",
          "type": "bool"
        }
      ],
      "stateMutability": "view",
      "type": "function",
      "constant": true
    },
    {
      "inputs": [],
      "name": "renounceOwnership",
      "outputs": [],
      "stateMutability": "nonpayable",
      "type": "function"
    },
    {
      "inputs": [
        {
          "internalType": "bytes32",
          "name": "role",
          "type": "bytes32"
        },
        {
          "internalType": "address",
          "name": "account",
          "type": "address"
        }
      ],
      "name": "renounceRole",
      "outputs": [],
      "stateMutability": "nonpayable",
      "type": "function"
    },
    {
      "inputs": [
        {
          "internalType": "bytes32",
          "name": "role",
          "type": "bytes32"
        },
        {
          "internalType": "address",
          "name": "account",
          "type": "address"
        }
      ],
      "name": "revokeRole",
      "outputs": [],
      "stateMutability": "nonpayable",
      "type": "function"
    },
    {
      "inputs": [
        {
          "internalType": "uint256",
          "name": "_tokenId",
          "type": "uint256"
        },
        {
          "internalType": "uint256",
          "name": "_salePrice",
          "type": "uint256"
        }
      ],
      "name": "royaltyInfo",
      "outputs": [
        {
          "internalType": "address",
          "name": "",
          "type": "address"
        },
        {
          "internalType": "uint256",
          "name": "",
          "type": "uint256"
        }
      ],
      "stateMutability": "view",
      "type": "function",
      "constant": true
    },
    {
      "inputs": [
        {
          "internalType": "address",
          "name": "from",
          "type": "address"
        },
        {
          "internalType": "address",
          "name": "to",
          "type": "address"
        },
        {
          "internalType": "uint256",
          "name": "tokenId",
          "type": "uint256"
        }
      ],
      "name": "safeTransferFrom",
      "outputs": [],
      "stateMutability": "nonpayable",
      "type": "function"
    },
    {
      "inputs": [
        {
          "internalType": "address",
          "name": "from",
          "type": "address"
        },
        {
          "internalType": "address",
          "name": "to",
          "type": "address"
        },
        {
          "internalType": "uint256",
          "name": "tokenId",
          "type": "uint256"
        },
        {
          "internalType": "bytes",
          "name": "_data",
          "type": "bytes"
        }
      ],
      "name": "safeTransferFrom",
      "outputs": [],
      "stateMutability": "nonpayable",
      "type": "function"
    },
    {
      "inputs": [
        {
          "internalType": "address",
          "name": "operator",
          "type": "address"
        },
        {
          "internalType": "bool",
          "name": "approved",
          "type": "bool"
        }
      ],
      "name": "setApprovalForAll",
      "outputs": [],
      "stateMutability": "nonpayable",
      "type": "function"
    },
    {
      "inputs": [],
      "name": "symbol",
      "outputs": [
        {
          "internalType": "string",
          "name": "",
          "type": "string"
        }
      ],
      "stateMutability": "view",
      "type": "function",
      "constant": true
    },
    {
      "inputs": [
        {
          "internalType": "address",
          "name": "from",
          "type": "address"
        },
        {
          "internalType": "address",
          "name": "to",
          "type": "address"
        },
        {
          "internalType": "uint256",
          "name": "tokenId",
          "type": "uint256"
        }
      ],
      "name": "transferFrom",
      "outputs": [],
      "stateMutability": "nonpayable",
      "type": "function"
    },
    {
      "inputs": [
        {
          "internalType": "address",
          "name": "newOwner",
          "type": "address"
        }
      ],
      "name": "transferOwnership",
      "outputs": [],
      "stateMutability": "nonpayable",
      "type": "function"
    },
    {
      "inputs": [
        {
          "internalType": "bytes4",
          "name": "interfaceId",
          "type": "bytes4"
        }
      ],
      "name": "supportsInterface",
      "outputs": [
        {
          "internalType": "bool",
          "name": "",
          "type": "bool"
        }
      ],
      "stateMutability": "view",
      "type": "function",
      "constant": true
    },
    {
      "inputs": [
        {
          "internalType": "address",
          "name": "to",
          "type": "address"
        },
        {
          "internalType": "uint256",
          "name": "quantity",
          "type": "uint256"
        }
      ],
      "name": "mint",
      "outputs": [],
      "stateMutability": "nonpayable",
      "type": "function"
    },
    {
      "inputs": [
        {
          "internalType": "uint256",
          "name": "tokenId",
          "type": "uint256"
        }
      ],
      "name": "tokenURI",
      "outputs": [
        {
          "internalType": "string",
          "name": "",
          "type": "string"
        }
      ],
      "stateMutability": "view",
      "type": "function",
      "constant": true
    },
    {
      "inputs": [
        {
          "internalType": "uint256",
          "name": "tokenId",
          "type": "uint256"
        }
      ],
      "name": "isStaked",
      "outputs": [
        {
          "internalType": "bool",
          "name": "",
          "type": "bool"
        }
      ],
      "stateMutability": "view",
      "type": "function",
      "constant": true
    },
    {
      "inputs": [
        {
          "internalType": "uint256",
          "name": "tokenId",
          "type": "uint256"
        }
      ],
      "name": "stake",
      "outputs": [],
      "stateMutability": "nonpayable",
      "type": "function"
    },
    {
      "inputs": [
        {
          "internalType": "uint256",
          "name": "tokenId",
          "type": "uint256"
        }
      ],
      "name": "unstake",
      "outputs": [],
      "stateMutability": "nonpayable",
      "type": "function"
    },
    {
      "inputs": [],
      "name": "pause",
      "outputs": [],
      "stateMutability": "nonpayable",
      "type": "function"
    },
    {
      "inputs": [],
      "name": "unpause",
      "outputs": [],
      "stateMutability": "nonpayable",
      "type": "function"
    },
    {
      "inputs": [
        {
          "internalType": "string",
          "name": "newBaseURI",
          "type": "string"
        }
      ],
      "name": "setBaseURI",
      "outputs": [],
      "stateMutability": "nonpayable",
      "type": "function"
    },
    {
      "inputs": [
        {
          "internalType": "uint256",
          "name": "tokenId",
          "type": "uint256"
        },
        {
          "internalType": "string",
          "name": "_tokenURI",
          "type": "string"
        }
      ],
      "name": "setTokenURI",
      "outputs": [],
      "stateMutability": "nonpayable",
      "type": "function"
    },
    {
      "inputs": [
        {
          "internalType": "address",
          "name": "receiver",
          "type": "address"
        },
        {
          "internalType": "uint96",
          "name": "feeNumerator",
          "type": "uint96"
        }
      ],
      "name": "setDefaultRoyalty",
      "outputs": [],
      "stateMutability": "nonpayable",
      "type": "function"
    },
    {
      "inputs": [
        {
          "internalType": "address",
          "name": "owner",
          "type": "address"
        },
        {
          "internalType": "uint256",
          "name": "index",
          "type": "uint256"
        }
      ],
      "name": "tokenOfOwnerByIndex",
      "outputs": [
        {
          "internalType": "uint256",
          "name": "",
          "type": "uint256"
        }
      ],
      "stateMutability": "view",
      "type": "function",
      "constant": true
    },
    {
      "inputs": [],
      "name": "totalSupply",
      "outputs": [
        {
          "internalType": "uint256",
          "name": "",
          "type": "uint256"
        }
      ],
      "stateMutability": "view",
      "type": "function",
      "constant": true
    },
    {
      "inputs": [
        {
          "internalType": "uint256",
          "name": "index",
          "type": "uint256"
        }
      ],
      "name": "tokenByIndex",
      "outputs": [
        {
          "internalType": "uint256",
          "name": "",
          "type": "uint256"
        }
      ],
      "stateMutability": "view",
      "type": "function",
      "constant": true
    }
  ],
  "bytecode": "0x6080604052600e805461ff00191690553480156200001c57600080fd5b5060405162004a1138038062004a118339810160408190526200003f916200086c565b82826200004c33620000c6565b815162000061906001906020850190620006f9565b50805162000077906002906020840190620006f9565b5050600e805460ff19169055506200009c601162000165602090811b62001bba17901c565b620000a7336200016e565b620000b281620001f6565b620000bd836200020f565b5050506200098b565b620000d36000826200027a565b620000ee600080516020620049f1833981519152826200027a565b62000109600080516020620049d1833981519152826200027a565b62000116600033620002bd565b62000131600080516020620049f183398151915233620002bd565b6200014c600080516020620049d183398151915233620002bd565b6200016281620002fb60201b62001bc31760201c565b50565b80546001019055565b6200017b6000826200034b565b62000196600080516020620049f1833981519152826200034b565b620001b1600080516020620049d1833981519152826200034b565b620001be60008062000357565b620001da600080516020620049f1833981519152600062000357565b62000162600080516020620049d1833981519152600062000357565b80516200020b906003906020840190620006f9565b5050565b600e54610100900460ff16156200025d5760405162461bcd60e51b815260206004820152600e60248201526d185b1c9958591e481a5b9a5d195960921b604482015260640160405180910390fd5b6200026881620003a2565b50600e805461ff001916610100179055565b6200029182826200044460201b62001c201760201c565b6000828152600d60209081526040909120620002b891839062001cc2620004e8821b17901c565b505050565b620002d482826200050860201b62001cd71760201c565b6000828152600d60209081526040909120620002b891839062001d5a6200058c821b17901c565b600080546001600160a01b038381166001600160a01b0319831681178455604051919092169283917f8be0079c531659141344cd1fd0a4f28419497f9722a3daafe3b4186f6b6457e09190a35050565b6200020b82826200027a565b6000828152600c6020526040808220600101805490849055905190918391839186917fbd79b86ffe0ab8e8776151514217cd7cacd52c909f66475c3af44e129f0b00ff9190a4505050565b6040518060800160405280604f815260200162004982604f9139805160209182012082519282019290922060408051808201825260018152603160f81b90840152805180840194909452838101919091527fc89efdaa54c0f20c7adf612882df0950f5a951637e0307cdcb4c672f298b8bc660608401523060808401524660a0808501919091528151808503909101815260c090930190528151910120600f55565b6000828152600c602090815260408083206001600160a01b038516845290915290205460ff166200020b576000828152600c602090815260408083206001600160a01b03851684529091529020805460ff19166001179055620004a43390565b6001600160a01b0316816001600160a01b0316837f2f8788117e7eff1d82e926ec794901d17c78024a50270940304540a733656f0d60405160405180910390a45050565b6000620004ff836001600160a01b038416620005a3565b90505b92915050565b6000828152600c602090815260408083206001600160a01b038516845290915290205460ff16156200020b576000828152600c602090815260408083206001600160a01b0385168085529252808320805460ff1916905551339285917ff6391f5c32d9c69d2a47ea670b442974b53935d1edc7fd64eb21e047a839171b9190a45050565b6000620004ff836001600160a01b038416620005f5565b6000818152600183016020526040812054620005ec5750815460018181018455600084815260208082209093018490558454848252828601909352604090209190915562000502565b50600062000502565b60008181526001830160205260408120548015620006ee5760006200061c600183620008fd565b85549091506000906200063290600190620008fd565b90508181146200069e57600086600001828154811062000656576200065662000923565b90600052602060002001549050808760000184815481106200067c576200067c62000923565b6000918252602080832090910192909255918252600188019052604090208390555b8554869080620006b257620006b262000939565b60019003818190600052602060002001600090559055856001016000868152602001908152602001600020600090556001935050505062000502565b600091505062000502565b82805462000707906200094f565b90600052602060002090601f0160209004810192826200072b576000855562000776565b82601f106200074657805160ff191683800117855562000776565b8280016001018555821562000776579182015b828111156200077657825182559160200191906001019062000759565b506200078492915062000788565b5090565b5b8082111562000784576000815560010162000789565b634e487b7160e01b600052604160045260246000fd5b600082601f830112620007c757600080fd5b81516001600160401b0380821115620007e457620007e46200079f565b604051601f8301601f19908116603f011681019082821181831017156200080f576200080f6200079f565b816040528381526020925086838588010111156200082c57600080fd5b600091505b8382101562000850578582018301518183018401529082019062000831565b83821115620008625760008385830101525b9695505050505050565b6000806000606084860312156200088257600080fd5b83516001600160401b03808211156200089a57600080fd5b620008a887838801620007b5565b94506020860151915080821115620008bf57600080fd5b620008cd87838801620007b5565b93506040860151915080821115620008e457600080fd5b50620008f386828701620007b5565b9150509250925092565b6000828210156200091e57634e487b7160e01b600052601160045260246000fd5b500390565b634e487b7160e01b600052603260045260246000fd5b634e487b7160e01b600052603160045260246000fd5b600181811c908216806200096457607f821691505b6020821081036200098557634e487b7160e01b600052602260045260246000fd5b50919050565b613fe7806200099b6000396000f3fe6080604052600436106102f25760003560e01c80634f6ccce71161018f578063a217fddf116100e1578063ca15c8731161008a578063e63ab1e911610064578063e63ab1e9146108bd578063e985e9c5146108f1578063f2fde38b1461093a57600080fd5b8063ca15c87314610849578063d539139314610869578063d547741f1461089d57600080fd5b8063b88d4fde116100bb578063b88d4fde146107d9578063baa51f86146107f9578063c87b56dd1461082957600080fd5b8063a217fddf14610784578063a22cb46514610799578063a694fc3a146107b957600080fd5b8063715018a6116101435780639010d07c1161011d5780639010d07c1461070957806391d148541461072957806395d89b411461076f57600080fd5b8063715018a6146106c15780638456cb59146106d65780638da5cb5b146106eb57600080fd5b80635c975abb116101745780635c975abb146106695780636352211e1461068157806370a08231146106a157600080fd5b80634f6ccce71461062957806355f804b31461064957600080fd5b8063248a9ca3116102485780632f745c59116101fc5780633f4ba83a116101d65780633f4ba83a146105d457806340c10f19146105e957806342842e0e1461060957600080fd5b80632f745c59146105815780633408e470146105a157806336568abe146105b457600080fd5b80632d0335ab1161022d5780632d0335ab1461050b5780632e17de78146105415780632f2ff15d1461056157600080fd5b8063248a9ca31461049c5780632a55205a146104cc57600080fd5b80630c53c51c116102aa57806318160ddd1161028457806318160ddd1461044457806320379ee51461046757806323b872dd1461047c57600080fd5b80630c53c51c146103c85780630f7e5970146103db578063162094c41461042457600080fd5b806306fdde03116102db57806306fdde031461034e578063081812fc14610370578063095ea7b3146103a857600080fd5b806301ffc9a7146102f757806304634d8d1461032c575b600080fd5b34801561030357600080fd5b50610317610312366004613860565b61095a565b60405190151581526020015b60405180910390f35b34801561033857600080fd5b5061034c610347366004613899565b61099e565b005b34801561035a57600080fd5b506103636109b5565b6040516103239190613939565b34801561037c57600080fd5b5061039061038b36600461394c565b610a47565b6040516001600160a01b039091168152602001610323565b3480156103b457600080fd5b5061034c6103c3366004613965565b610af2565b6103636103d6366004613a32565b610c23565b3480156103e757600080fd5b506103636040518060400160405280600181526020017f310000000000000000000000000000000000000000000000000000000000000081525081565b34801561043057600080fd5b5061034c61043f366004613aae565b610e29565b34801561045057600080fd5b50610459610ec3565b604051908152602001610323565b34801561047357600080fd5b50600f54610459565b34801561048857600080fd5b5061034c610497366004613af5565b610ed2565b3480156104a857600080fd5b506104596104b736600461394c565b6000908152600c602052604090206001015490565b3480156104d857600080fd5b506104ec6104e7366004613b31565b610f59565b604080516001600160a01b039093168352602083019190915201610323565b34801561051757600080fd5b50610459610526366004613b53565b6001600160a01b031660009081526010602052604090205490565b34801561054d57600080fd5b5061034c61055c36600461394c565b611014565b34801561056d57600080fd5b5061034c61057c366004613b6e565b611140565b34801561058d57600080fd5b5061045961059c366004613965565b611165565b3480156105ad57600080fd5b5046610459565b3480156105c057600080fd5b5061034c6105cf366004613b6e565b611178565b3480156105e057600080fd5b5061034c611200565b3480156105f557600080fd5b5061034c610604366004613965565b6112a6565b34801561061557600080fd5b5061034c610624366004613af5565b611461565b34801561063557600080fd5b5061045961064436600461394c565b61147c565b34801561065557600080fd5b5061034c610664366004613b9a565b611505565b34801561067557600080fd5b50600e5460ff16610317565b34801561068d57600080fd5b5061039061069c36600461394c565b611582565b3480156106ad57600080fd5b506104596106bc366004613b53565b61160d565b3480156106cd57600080fd5b5061034c611618565b3480156106e257600080fd5b5061034c61167c565b3480156106f757600080fd5b506000546001600160a01b0316610390565b34801561071557600080fd5b50610390610724366004613b31565b611720565b34801561073557600080fd5b50610317610744366004613b6e565b6000918252600c602090815260408084206001600160a01b0393909316845291905290205460ff1690565b34801561077b57600080fd5b50610363611738565b34801561079057600080fd5b50610459600081565b3480156107a557600080fd5b5061034c6107b4366004613bcf565b611747565b3480156107c557600080fd5b5061034c6107d436600461394c565b611752565b3480156107e557600080fd5b5061034c6107f4366004613c00565b61188c565b34801561080557600080fd5b5061031761081436600461394c565b60009081526013602052604090205460ff1690565b34801561083557600080fd5b5061036361084436600461394c565b61191a565b34801561085557600080fd5b5061045961086436600461394c565b611a9f565b34801561087557600080fd5b506104597f9f2df0fed2c77648de5860a4cc508cd0818c85b8b8a1ab4ceeef8d981c8956a681565b3480156108a957600080fd5b5061034c6108b8366004613b6e565b611ab6565b3480156108c957600080fd5b506104597f65d7a28e3265b37a6474929f336521b332c1681b933f6cb9f3376673440d862a81565b3480156108fd57600080fd5b5061031761090c366004613c68565b6001600160a01b03918216600090815260076020908152604080832093909416825291909152205460ff1690565b34801561094657600080fd5b5061034c610955366004613b53565b611adb565b60006001600160e01b031982167f780e9d63000000000000000000000000000000000000000000000000000000001480610998575061099882611d6f565b92915050565b6109a733611d7a565b6109b18282611d85565b5050565b6060600180546109c490613c92565b80601f01602080910402602001604051908101604052809291908181526020018280546109f090613c92565b8015610a3d5780601f10610a1257610100808354040283529160200191610a3d565b820191906000526020600020905b815481529060010190602001808311610a2057829003601f168201915b5050505050905090565b6000818152600460205260408120546001600160a01b0316610ad65760405162461bcd60e51b815260206004820152602c60248201527f4552433732313a20617070726f76656420717565727920666f72206e6f6e657860448201527f697374656e7420746f6b656e000000000000000000000000000000000000000060648201526084015b60405180910390fd5b506000908152600660205260409020546001600160a01b031690565b6000610afd82611582565b9050806001600160a01b0316836001600160a01b031603610b865760405162461bcd60e51b815260206004820152602160248201527f4552433732313a20617070726f76616c20746f2063757272656e74206f776e6560448201527f72000000000000000000000000000000000000000000000000000000000000006064820152608401610acd565b336001600160a01b0382161480610ba25750610ba2813361090c565b610c145760405162461bcd60e51b815260206004820152603860248201527f4552433732313a20617070726f76652063616c6c6572206973206e6f74206f7760448201527f6e6572206e6f7220617070726f76656420666f7220616c6c00000000000000006064820152608401610acd565b610c1e8383611e9f565b505050565b60408051606081810183526001600160a01b03881660008181526010602090815290859020548452830152918101869052610c618782878787611f1a565b610cd35760405162461bcd60e51b815260206004820152602160248201527f5369676e657220616e64207369676e617475726520646f206e6f74206d61746360448201527f68000000000000000000000000000000000000000000000000000000000000006064820152608401610acd565b6001600160a01b038716600090815260106020526040902054610cf7906001612022565b6001600160a01b0388166000908152601060205260409081902091909155517f5845892132946850460bff5a0083f71031bc5bf9aadcd40f1de79423eac9b10b90610d4790899033908a90613ccc565b60405180910390a1600080306001600160a01b0316888a604051602001610d6f929190613d01565b60408051601f1981840301815290829052610d8991613d4b565b6000604051808303816000865af19150503d8060008114610dc6576040519150601f19603f3d011682016040523d82523d6000602084013e610dcb565b606091505b509150915081610e1d5760405162461bcd60e51b815260206004820152601c60248201527f46756e6374696f6e2063616c6c206e6f74207375636365737366756c000000006044820152606401610acd565b98975050505050505050565b610e3233611d7a565b610e5c7f9f2df0fed2c77648de5860a4cc508cd0818c85b8b8a1ab4ceeef8d981c8956a633610744565b610eb95760405162461bcd60e51b815260206004820152602860248201527f4d696e7461626c653a206d7573742068617665206d696e74657220726f6c6520604482015267746f207374616b6560c01b6064820152608401610acd565b6109b1828261202e565b6000610ecd6120d7565b905090565b610edc33826120ee565b610f4e5760405162461bcd60e51b815260206004820152603160248201527f4552433732313a207472616e736665722063616c6c6572206973206e6f74206f60448201527f776e6572206e6f7220617070726f7665640000000000000000000000000000006064820152608401610acd565b610c1e8383836121f2565b6000828152600b602090815260408083208151808301909252546001600160a01b038116808352600160a01b9091046bffffffffffffffffffffffff16928201929092528291610fd8575060408051808201909152600a546001600160a01b0381168252600160a01b90046bffffffffffffffffffffffff1660208201525b602081015160009061271090610ffc906bffffffffffffffffffffffff1687613d7d565b6110069190613db2565b915196919550909350505050565b600081815260136020526040902054819060ff166110745760405162461bcd60e51b815260206004820152601f60248201527f5374616b6561626c653a20746f6b656e206d757374206265207374616b6564006044820152606401610acd565b61109e7f9f2df0fed2c77648de5860a4cc508cd0818c85b8b8a1ab4ceeef8d981c8956a633610744565b6110fb5760405162461bcd60e51b815260206004820152602860248201527f4d696e7461626c653a206d7573742068617665206d696e74657220726f6c6520604482015267746f207374616b6560c01b6064820152608401610acd565b600082815260136020526040808220805460ff191690555160019184917fe5dbbe89d6fd5b565254bceca1ab70d37ea90313ea1f0f6aac8887e0e83f21c39190a35050565b6000828152600c602052604090206001015461115b816123d7565b610c1e83836123e1565b60006111718383612403565b9392505050565b6001600160a01b03811633146111f65760405162461bcd60e51b815260206004820152602f60248201527f416363657373436f6e74726f6c3a2063616e206f6e6c792072656e6f756e636560448201527f20726f6c657320666f722073656c6600000000000000000000000000000000006064820152608401610acd565b6109b182826124ab565b61122a7f65d7a28e3265b37a6474929f336521b332c1681b933f6cb9f3376673440d862a33610744565b61129c5760405162461bcd60e51b815260206004820152602a60248201527f4d696e7461626c653a206d75737420686176652070617573657220726f6c652060448201527f746f20756e7061757365000000000000000000000000000000000000000000006064820152608401610acd565b6112a46124cd565b565b6112d07f9f2df0fed2c77648de5860a4cc508cd0818c85b8b8a1ab4ceeef8d981c8956a633610744565b6113425760405162461bcd60e51b815260206004820152602a60248201527f526f6c65436f6e74726f6c3a206d7573742068617665206d696e74657220726f60448201527f6c6520746f206d696e74000000000000000000000000000000000000000000006064820152608401610acd565b600e5460ff16156113a35760405162461bcd60e51b815260206004820152602560248201527f5061757361626c653a20746f6b656e207472616e73666572207768696c652070604482015264185d5cd95960da1b6064820152608401610acd565b6000811180156113b35750601581105b6114095760405162461bcd60e51b815260206004820152602160248201527f4d696e7461626c653a207175616e74697479206d7573742062652031202d20326044820152600360fc1b6064820152608401610acd565b611411613792565b60005b828110156114565760115482826014811061143157611431613dc6565b6020020152611444601180546001019055565b8061144e81613ddc565b915050611414565b50610c1e8382612569565b610c1e8383836040518060200160405280600081525061188c565b60006114866120d7565b82106114fa5760405162461bcd60e51b815260206004820152602c60248201527f455243373231456e756d657261626c653a20676c6f62616c20696e646578206f60448201527f7574206f6620626f756e647300000000000000000000000000000000000000006064820152608401610acd565b610998826001613df5565b61150e33611d7a565b611519600033610744565b6115765760405162461bcd60e51b815260206004820152602860248201527f4d696e7461626c653a206d7573742068617665206d696e74657220726f6c6520604482015267746f207374616b6560c01b6064820152608401610acd565b61157f81612583565b50565b6000818152600460205260408120546001600160a01b0316806109985760405162461bcd60e51b815260206004820152602960248201527f4552433732313a206f776e657220717565727920666f72206e6f6e657869737460448201527f656e7420746f6b656e00000000000000000000000000000000000000000000006064820152608401610acd565b600061099882612596565b6000546001600160a01b031633146116725760405162461bcd60e51b815260206004820181905260248201527f4f776e61626c653a2063616c6c6572206973206e6f7420746865206f776e65726044820152606401610acd565b6112a46000612630565b6116a67f65d7a28e3265b37a6474929f336521b332c1681b933f6cb9f3376673440d862a33610744565b6117185760405162461bcd60e51b815260206004820152602860248201527f4d696e7461626c653a206d75737420686176652070617573657220726f6c652060448201527f746f2070617573650000000000000000000000000000000000000000000000006064820152608401610acd565b6112a46126f7565b6000828152600d60205260408120611171908361277f565b6060600280546109c490613c92565b6109b133838361278b565b600081815260136020526040902054819060ff16156117bf5760405162461bcd60e51b815260206004820152602360248201527f5374616b6561626c653a20746f6b656e206d757374206e6f74206265207374616044820152621ad95960ea1b6064820152608401610acd565b6117e97f9f2df0fed2c77648de5860a4cc508cd0818c85b8b8a1ab4ceeef8d981c8956a633610744565b6118465760405162461bcd60e51b815260206004820152602860248201527f4d696e7461626c653a206d7573742068617665206d696e74657220726f6c6520604482015267746f207374616b6560c01b6064820152608401610acd565b600082815260136020526040808220805460ff191660011790555183907fe5dbbe89d6fd5b565254bceca1ab70d37ea90313ea1f0f6aac8887e0e83f21c3908390a35050565b61189633836120ee565b6119085760405162461bcd60e51b815260206004820152603160248201527f4552433732313a207472616e736665722063616c6c6572206973206e6f74206f60448201527f776e6572206e6f7220617070726f7665640000000000000000000000000000006064820152608401610acd565b61191484848484612859565b50505050565b6000818152600460205260409020546060906001600160a01b03166119a75760405162461bcd60e51b815260206004820152602960248201527f4d696e7461626c653a2055524920717565727920666f72206e6f6e657869737460448201527f656e7420746f6b656e00000000000000000000000000000000000000000000006064820152608401610acd565b600082815260126020526040812080546119c090613c92565b80601f01602080910402602001604051908101604052809291908181526020018280546119ec90613c92565b8015611a395780601f10611a0e57610100808354040283529160200191611a39565b820191906000526020600020905b815481529060010190602001808311611a1c57829003601f168201915b505050505090506000611a4a6128e2565b90508051600003611a5c575092915050565b815115611a8e578082604051602001611a76929190613e0d565b60405160208183030381529060405292505050919050565b611a97846128f1565b949350505050565b6000818152600d60205260408120610998906129d9565b6000828152600c6020526040902060010154611ad1816123d7565b610c1e83836124ab565b6000546001600160a01b03163314611b355760405162461bcd60e51b815260206004820181905260248201527f4f776e61626c653a2063616c6c6572206973206e6f7420746865206f776e65726044820152606401610acd565b6001600160a01b038116611bb15760405162461bcd60e51b815260206004820152602660248201527f4f776e61626c653a206e6577206f776e657220697320746865207a65726f206160448201527f64647265737300000000000000000000000000000000000000000000000000006064820152608401610acd565b61157f81612630565b80546001019055565b600080546001600160a01b0383811673ffffffffffffffffffffffffffffffffffffffff19831681178455604051919092169283917f8be0079c531659141344cd1fd0a4f28419497f9722a3daafe3b4186f6b6457e09190a35050565b6000828152600c602090815260408083206001600160a01b038516845290915290205460ff166109b1576000828152600c602090815260408083206001600160a01b03851684529091529020805460ff19166001179055611c7e3390565b6001600160a01b0316816001600160a01b0316837f2f8788117e7eff1d82e926ec794901d17c78024a50270940304540a733656f0d60405160405180910390a45050565b6000611171836001600160a01b0384166129e3565b6000828152600c602090815260408083206001600160a01b038516845290915290205460ff16156109b1576000828152600c602090815260408083206001600160a01b0385168085529252808320805460ff1916905551339285917ff6391f5c32d9c69d2a47ea670b442974b53935d1edc7fd64eb21e047a839171b9190a45050565b6000611171836001600160a01b038416612a32565b600061099882612b25565b61157f600082612b63565b6127106bffffffffffffffffffffffff82161115611e0b5760405162461bcd60e51b815260206004820152602a60248201527f455243323938313a20726f79616c7479206665652077696c6c2065786365656460448201527f2073616c655072696365000000000000000000000000000000000000000000006064820152608401610acd565b6001600160a01b038216611e615760405162461bcd60e51b815260206004820152601960248201527f455243323938313a20696e76616c6964207265636569766572000000000000006044820152606401610acd565b604080518082019091526001600160a01b039092168083526bffffffffffffffffffffffff9091166020909201829052600160a01b90910217600a55565b6000818152600660205260409020805473ffffffffffffffffffffffffffffffffffffffff19166001600160a01b0384169081179091558190611ee182611582565b6001600160a01b03167f8c5be1e5ebec7d5bd14f71427d1e84f3dd0314c0f7b2291e5b200ac8c7c3b92560405160405180910390a45050565b60006001600160a01b038616611f985760405162461bcd60e51b815260206004820152602560248201527f4e61746976654d6574615472616e73616374696f6e3a20494e56414c49445f5360448201527f49474e45520000000000000000000000000000000000000000000000000000006064820152608401610acd565b6001611fab611fa687612be3565b612c60565b6040805160008152602081018083529290925260ff851690820152606081018690526080810185905260a0016020604051602081039080840390855afa158015611ff9573d6000803e3d6000fd5b505050602060405103516001600160a01b0316866001600160a01b031614905095945050505050565b60006111718284613df5565b6000828152600460205260409020546001600160a01b03166120b85760405162461bcd60e51b815260206004820152602660248201527f4d696e7461626c653a2055524920736574206f66206e6f6e6578697374656e7460448201527f20746f6b656e00000000000000000000000000000000000000000000000000006064820152608401610acd565b60008281526012602090815260409091208251610c1e928401906137b1565b600060016120e460115490565b610ecd9190613e3c565b6000818152600460205260408120546001600160a01b03166121785760405162461bcd60e51b815260206004820152602c60248201527f4552433732313a206f70657261746f7220717565727920666f72206e6f6e657860448201527f697374656e7420746f6b656e00000000000000000000000000000000000000006064820152608401610acd565b600061218383611582565b9050806001600160a01b0316846001600160a01b031614806121be5750836001600160a01b03166121b384610a47565b6001600160a01b0316145b80611a9757506001600160a01b0380821660009081526007602090815260408083209388168352929052205460ff16611a97565b826001600160a01b031661220582611582565b6001600160a01b0316146122815760405162461bcd60e51b815260206004820152602560248201527f4552433732313a207472616e736665722066726f6d20696e636f72726563742060448201527f6f776e65720000000000000000000000000000000000000000000000000000006064820152608401610acd565b6001600160a01b0382166122fc5760405162461bcd60e51b8152602060048201526024808201527f4552433732313a207472616e7366657220746f20746865207a65726f2061646460448201527f72657373000000000000000000000000000000000000000000000000000000006064820152608401610acd565b612307838383612cab565b612312600082611e9f565b6001600160a01b038316600090815260056020526040812080546001929061233b908490613e3c565b90915550506001600160a01b0382166000908152600560205260408120805460019290612369908490613df5565b9091555050600081815260046020526040808220805473ffffffffffffffffffffffffffffffffffffffff19166001600160a01b0386811691821790925591518493918716917fddf252ad1be2c89b69c2b068fc378daa952ba7f163c4a11628f55a4df523b3ef91a4505050565b61157f8133612b63565b6123eb8282611c20565b6000828152600d60205260409020610c1e9082611cc2565b600061240e83612596565b82106124825760405162461bcd60e51b815260206004820152602b60248201527f455243373231456e756d657261626c653a206f776e657220696e646578206f7560448201527f74206f6620626f756e64730000000000000000000000000000000000000000006064820152608401610acd565b506001600160a01b03919091166000908152600860209081526040808320938352929052205490565b6124b58282611cd7565b6000828152600d60205260409020610c1e9082611d5a565b600e5460ff1661251f5760405162461bcd60e51b815260206004820152601460248201527f5061757361626c653a206e6f74207061757365640000000000000000000000006044820152606401610acd565b600e805460ff191690557f5db9ee0a495bf2e6ff9c91a7834c1ba4fdd244a5e8aa4e537bd38aeae4b073aa335b6040516001600160a01b03909116815260200160405180910390a1565b6109b1828260405180602001604052806000815250612d84565b80516109b19060039060208401906137b1565b60006001600160a01b0382166126145760405162461bcd60e51b815260206004820152602a60248201527f4552433732313a2062616c616e636520717565727920666f7220746865207a6560448201527f726f2061646472657373000000000000000000000000000000000000000000006064820152608401610acd565b506001600160a01b031660009081526005602052604090205490565b61263b6000826123e1565b6126657f9f2df0fed2c77648de5860a4cc508cd0818c85b8b8a1ab4ceeef8d981c8956a6826123e1565b61268f7f65d7a28e3265b37a6474929f336521b332c1681b933f6cb9f3376673440d862a826123e1565b61269a6000336124ab565b6126c47f9f2df0fed2c77648de5860a4cc508cd0818c85b8b8a1ab4ceeef8d981c8956a6336124ab565b6126ee7f65d7a28e3265b37a6474929f336521b332c1681b933f6cb9f3376673440d862a336124ab565b61157f81611bc3565b600e5460ff161561274a5760405162461bcd60e51b815260206004820152601060248201527f5061757361626c653a20706175736564000000000000000000000000000000006044820152606401610acd565b600e805460ff191660011790557f62e78cea01bee320cd4e420270b5ea74000d11b0c9f74754ebdbfc544b05a25861254c3390565b60006111718383612e11565b816001600160a01b0316836001600160a01b0316036127ec5760405162461bcd60e51b815260206004820152601960248201527f4552433732313a20617070726f766520746f2063616c6c6572000000000000006044820152606401610acd565b6001600160a01b03838116600081815260076020908152604080832094871680845294825291829020805460ff191686151590811790915591519182527f17307eab39ab6107e8899845ad3d59bd9653f200f220920489ca2b5937696c31910160405180910390a3505050565b6128648484846121f2565b61287084848484612e3b565b6119145760405162461bcd60e51b815260206004820152603260248201527f4552433732313a207472616e7366657220746f206e6f6e20455243373231526560448201527f63656976657220696d706c656d656e74657200000000000000000000000000006064820152608401610acd565b6060600380546109c490613c92565b6000818152600460205260409020546060906001600160a01b031661297e5760405162461bcd60e51b815260206004820152602f60248201527f4552433732314d657461646174613a2055524920717565727920666f72206e6f60448201527f6e6578697374656e7420746f6b656e00000000000000000000000000000000006064820152608401610acd565b60006129886128e2565b905060008151116129a85760405180602001604052806000815250611171565b806129b284612f92565b6040516020016129c3929190613e0d565b6040516020818303038152906040529392505050565b6000610998825490565b6000818152600183016020526040812054612a2a57508154600181810184556000848152602080822090930184905584548482528286019093526040902091909155610998565b506000610998565b60008181526001830160205260408120548015612b1b576000612a56600183613e3c565b8554909150600090612a6a90600190613e3c565b9050818114612acf576000866000018281548110612a8a57612a8a613dc6565b9060005260206000200154905080876000018481548110612aad57612aad613dc6565b6000918252602080832090910192909255918252600188019052604090208390555b8554869080612ae057612ae0613e53565b600190038181906000526020600020016000905590558560010160008681526020019081526020016000206000905560019350505050610998565b6000915050610998565b60006001600160e01b031982167f5a05180f000000000000000000000000000000000000000000000000000000001480610998575061099882613093565b6000828152600c602090815260408083206001600160a01b038516845290915290205460ff166109b157612ba1816001600160a01b031660146130d1565b612bac8360206130d1565b604051602001612bbd929190613e69565b60408051601f198184030181529082905262461bcd60e51b8252610acd91600401613939565b6000604051806080016040528060438152602001613f6f6043913980516020918201208351848301516040808701518051908601209051612c43950193845260208401929092526001600160a01b03166040830152606082015260800190565b604051602081830303815290604052805190602001209050919050565b6000612c6b600f5490565b6040517f19010000000000000000000000000000000000000000000000000000000000006020820152602281019190915260428101839052606201612c43565b600081815260136020526040902054819060ff1615612d185760405162461bcd60e51b815260206004820152602360248201527f5374616b6561626c653a20746f6b656e206d757374206e6f74206265207374616044820152621ad95960ea1b6064820152608401610acd565b600e5460ff1615612d795760405162461bcd60e51b815260206004820152602560248201527f5061757361626c653a20746f6b656e207472616e73666572207768696c652070604482015264185d5cd95960da1b6064820152608401610acd565b611914848484613296565b612d8e8383613308565b8151612d9f90600090859084612e3b565b610c1e5760405162461bcd60e51b815260206004820152603260248201527f4552433732313a207472616e7366657220746f206e6f6e20455243373231526560448201527f63656976657220696d706c656d656e74657200000000000000000000000000006064820152608401610acd565b6000826000018281548110612e2857612e28613dc6565b9060005260206000200154905092915050565b60006001600160a01b0384163b15612f8757604051630a85bd0160e11b81526001600160a01b0385169063150b7a0290612e7f903390899088908890600401613eea565b6020604051808303816000875af1925050508015612eba575060408051601f3d908101601f19168201909252612eb791810190613f26565b60015b612f6d573d808015612ee8576040519150601f19603f3d011682016040523d82523d6000602084013e612eed565b606091505b508051600003612f655760405162461bcd60e51b815260206004820152603260248201527f4552433732313a207472616e7366657220746f206e6f6e20455243373231526560448201527f63656976657220696d706c656d656e74657200000000000000000000000000006064820152608401610acd565b805181602001fd5b6001600160e01b031916630a85bd0160e11b149050611a97565b506001949350505050565b606081600003612fb95750506040805180820190915260018152600360fc1b602082015290565b8160005b8115612fe35780612fcd81613ddc565b9150612fdc9050600a83613db2565b9150612fbd565b60008167ffffffffffffffff811115612ffe57612ffe61398f565b6040519080825280601f01601f191660200182016040528015613028576020820181803683370190505b5090505b8415611a975761303d600183613e3c565b915061304a600a86613f43565b613055906030613df5565b60f81b81838151811061306a5761306a613dc6565b60200101906001600160f81b031916908160001a90535061308c600a86613db2565b945061302c565b60006001600160e01b031982167f7965db0b0000000000000000000000000000000000000000000000000000000014806109985750610998826135d8565b606060006130e0836002613d7d565b6130eb906002613df5565b67ffffffffffffffff8111156131035761310361398f565b6040519080825280601f01601f19166020018201604052801561312d576020820181803683370190505b509050600360fc1b8160008151811061314857613148613dc6565b60200101906001600160f81b031916908160001a9053507f78000000000000000000000000000000000000000000000000000000000000008160018151811061319357613193613dc6565b60200101906001600160f81b031916908160001a90535060006131b7846002613d7d565b6131c2906001613df5565b90505b6001811115613247577f303132333435363738396162636465660000000000000000000000000000000085600f166010811061320357613203613dc6565b1a60f81b82828151811061321957613219613dc6565b60200101906001600160f81b031916908160001a90535060049490941c9361324081613f57565b90506131c5565b5083156111715760405162461bcd60e51b815260206004820181905260248201527f537472696e67733a20686578206c656e67746820696e73756666696369656e746044820152606401610acd565b6001600160a01b038316158015906132c05750816001600160a01b0316836001600160a01b031614155b156132cf576132cf8382613616565b6001600160a01b038216158015906132f95750826001600160a01b0316826001600160a01b031614155b15610c1e57610c1e82826136b3565b6001600160a01b0382166133845760405162461bcd60e51b815260206004820152602260248201527f4d696e7461626c653a206d696e7420746f20746865207a65726f20616464726560448201527f73730000000000000000000000000000000000000000000000000000000000006064820152608401610acd565b600061338f83612596565b90506000805b60148110156135a4578381601481106133b0576133b0613dc6565b6020020151156135a4576133f18482601481106133cf576133cf613dc6565b60200201516000908152600460205260409020546001600160a01b0316151590565b1561343e5760405162461bcd60e51b815260206004820152601e60248201527f4d696e7461626c653a20746f6b656e20616c7265616479206d696e74656400006044820152606401610acd565b846004600086846014811061345557613455613dc6565b6020020151815260200190815260200160002060006101000a8154816001600160a01b0302191690836001600160a01b031602179055506001826134999190613df5565b91508381601481106134ad576134ad613dc6565b602002015160086000876001600160a01b03166001600160a01b03168152602001908152602001600020600083866134e59190613df5565b81526020810191909152604001600020556135008184613df5565b6009600086846014811061351657613516613dc6565b602002015181526020019081526020016000208190555083816014811061353f5761353f613dc6565b60200201516040516001600160a01b038716906000907fddf252ad1be2c89b69c2b068fc378daa952ba7f163c4a11628f55a4df523b3ef908290a461359260008686846014811061191457611914613dc6565b8061359c81613ddc565b915050613395565b506001600160a01b038416600090815260056020526040812080548392906135cd908490613df5565b909155505050505050565b60006001600160e01b031982167f2a55205a0000000000000000000000000000000000000000000000000000000014806109985750610998826136f7565b6000600161362384612596565b61362d9190613e3c565b600083815260096020526040902054909150808214613680576001600160a01b03841660009081526008602090815260408083208584528252808320548484528184208190558352600990915290208190555b5060009182526009602090815260408084208490556001600160a01b039094168352600881528383209183525290812055565b60006136be83612596565b6001600160a01b039093166000908152600860209081526040808320868452825280832085905593825260099052919091209190915550565b60006001600160e01b031982167f80ac58cd00000000000000000000000000000000000000000000000000000000148061375a57506001600160e01b031982167f5b5e139f00000000000000000000000000000000000000000000000000000000145b8061099857507f01ffc9a7000000000000000000000000000000000000000000000000000000006001600160e01b0319831614610998565b6040518061028001604052806014906020820280368337509192915050565b8280546137bd90613c92565b90600052602060002090601f0160209004810192826137df5760008555613825565b82601f106137f857805160ff1916838001178555613825565b82800160010185558215613825579182015b8281111561382557825182559160200191906001019061380a565b50613831929150613835565b5090565b5b808211156138315760008155600101613836565b6001600160e01b03198116811461157f57600080fd5b60006020828403121561387257600080fd5b81356111718161384a565b80356001600160a01b038116811461389457600080fd5b919050565b600080604083850312156138ac57600080fd5b6138b58361387d565b915060208301356bffffffffffffffffffffffff811681146138d657600080fd5b809150509250929050565b60005b838110156138fc5781810151838201526020016138e4565b838111156119145750506000910152565b600081518084526139258160208601602086016138e1565b601f01601f19169290920160200192915050565b602081526000611171602083018461390d565b60006020828403121561395e57600080fd5b5035919050565b6000806040838503121561397857600080fd5b6139818361387d565b946020939093013593505050565b634e487b7160e01b600052604160045260246000fd5b600082601f8301126139b657600080fd5b813567ffffffffffffffff808211156139d1576139d161398f565b604051601f8301601f19908116603f011681019082821181831017156139f9576139f961398f565b81604052838152866020858801011115613a1257600080fd5b836020870160208301376000602085830101528094505050505092915050565b600080600080600060a08688031215613a4a57600080fd5b613a538661387d565b9450602086013567ffffffffffffffff811115613a6f57600080fd5b613a7b888289016139a5565b9450506040860135925060608601359150608086013560ff81168114613aa057600080fd5b809150509295509295909350565b60008060408385031215613ac157600080fd5b82359150602083013567ffffffffffffffff811115613adf57600080fd5b613aeb858286016139a5565b9150509250929050565b600080600060608486031215613b0a57600080fd5b613b138461387d565b9250613b216020850161387d565b9150604084013590509250925092565b60008060408385031215613b4457600080fd5b50508035926020909101359150565b600060208284031215613b6557600080fd5b6111718261387d565b60008060408385031215613b8157600080fd5b82359150613b916020840161387d565b90509250929050565b600060208284031215613bac57600080fd5b813567ffffffffffffffff811115613bc357600080fd5b611a97848285016139a5565b60008060408385031215613be257600080fd5b613beb8361387d565b9150602083013580151581146138d657600080fd5b60008060008060808587031215613c1657600080fd5b613c1f8561387d565b9350613c2d6020860161387d565b925060408501359150606085013567ffffffffffffffff811115613c5057600080fd5b613c5c878288016139a5565b91505092959194509250565b60008060408385031215613c7b57600080fd5b613c848361387d565b9150613b916020840161387d565b600181811c90821680613ca657607f821691505b602082108103613cc657634e487b7160e01b600052602260045260246000fd5b50919050565b60006001600160a01b03808616835280851660208401525060606040830152613cf8606083018461390d565b95945050505050565b60008351613d138184602088016138e1565b60609390931b7fffffffffffffffffffffffffffffffffffffffff000000000000000000000000169190920190815260140192915050565b60008251613d5d8184602087016138e1565b9190910192915050565b634e487b7160e01b600052601160045260246000fd5b6000816000190483118215151615613d9757613d97613d67565b500290565b634e487b7160e01b600052601260045260246000fd5b600082613dc157613dc1613d9c565b500490565b634e487b7160e01b600052603260045260246000fd5b600060018201613dee57613dee613d67565b5060010190565b60008219821115613e0857613e08613d67565b500190565b60008351613e1f8184602088016138e1565b835190830190613e338183602088016138e1565b01949350505050565b600082821015613e4e57613e4e613d67565b500390565b634e487b7160e01b600052603160045260246000fd5b7f416363657373436f6e74726f6c3a206163636f756e7420000000000000000000815260008351613ea18160178501602088016138e1565b7f206973206d697373696e6720726f6c65200000000000000000000000000000006017918401918201528351613ede8160288401602088016138e1565b01602801949350505050565b60006001600160a01b03808716835280861660208401525083604083015260806060830152613f1c608083018461390d565b9695505050505050565b600060208284031215613f3857600080fd5b81516111718161384a565b600082613f5257613f52613d9c565b500690565b600081613f6657613f66613d67565b50600019019056fe4d6574615472616e73616374696f6e2875696e74323536206e6f6e63652c616464726573732066726f6d2c62797465732066756e6374696f6e5369676e617475726529a26469706673582212202001ea887a58e61d1eca2ab9209f4b62113f48b3d4174dc634bde6318ff84b3564736f6c634300080d0033454950373132446f6d61696e28737472696e67206e616d652c737472696e672076657273696f6e2c6164647265737320766572696679696e67436f6e74726163742c627974657333322073616c742965d7a28e3265b37a6474929f336521b332c1681b933f6cb9f3376673440d862a9f2df0fed2c77648de5860a4cc508cd0818c85b8b8a1ab4ceeef8d981c8956a6",
  "immutableReferences": {},
  "source": "// SPDX-License-Identifier: MIT\n// Cipher Mountain Contracts (last updated v0.0.1) (/Mintable.sol)\n\npragma solidity ^0.8.0;\n\nimport \"@openzeppelin/contracts/utils/Counters.sol\";\nimport \"@openzeppelin/contracts/security/Pausable.sol\";\nimport \"@openzeppelin/contracts/token/common/ERC2981.sol\";\nimport \"@openzeppelin/contracts/token/ERC721/extensions/IERC721Enumerable.sol\";\nimport \"@openzeppelin/contracts/utils/introspection/ERC165.sol\";\nimport \"./ERC721.sol\";\nimport \"./extensions/NativeMetaTransaction.sol\";\nimport \"./extensions/MinterPauserRole.sol\";\nimport \"./IStakeable.sol\";\n\ncontract ERC721EnumerablePausable is ERC721, ERC2981, IStakeable, MinterPauserRole, Pausable, NativeMetaTransaction, IERC721Enumerable {\n    using Counters for Counters.Counter;\n\n    Counters.Counter private _tokenIds;\n\n    // Optional mapping for token URIs\n    mapping(uint256 => string) private _tokenURIs;\n\n    // Token staking is to prevent transfers of any single token in the case of staking\n    mapping(uint256 => bool) private _stakedTokens;\n\n    /**\n     * @dev increments the counter on creation to start count at 1\n     */\n    constructor(\n        string memory name,\n        string memory symbol,\n        string memory baseTokenURI\n    ) ERC721(name, symbol) {\n        _tokenIds.increment();\n        _setupOwnerRoles(_msgSender());\n        _setBaseURI(baseTokenURI);\n        _initializeEIP712(name);\n    }\n\n    /**\n     * @dev Modifier to make a function callable only when the token is not staked.\n     *\n     * Requirements:\n     *\n     * - The contract must not be paused.\n     */\n    modifier whenNotStaked(uint256 tokenId) {\n        require(!isStaked(tokenId), \"Stakeable: token must not be staked\");\n        _;\n    }\n\n    /**\n     * @dev Modifier to make a function callable only when the token is staked.\n     *\n     * Requirements:\n     *\n     * - The contract must not be paused.\n     */\n    modifier whenStaked(uint256 tokenId) {\n        require(isStaked(tokenId), \"Stakeable: token must be staked\");\n        _;\n    }\n\n    /**\n     * @dev See {IERC165-supportsInterface}.\n     */\n    function supportsInterface(bytes4 interfaceId) public view virtual override(IERC165, ERC721, ERC2981, MinterPauserRole) returns (bool) {\n        return\n            interfaceId == type(IERC721Enumerable).interfaceId || \n          super.supportsInterface(interfaceId);\n    }\n\n    function mint(address to, uint256 quantity) external {\n        require(hasRole(MINTER_ROLE, _msgSender()), \"RoleControl: must have minter role to mint\");\n        require(!paused(), \"Pausable: token transfer while paused\");\n      require(quantity > 0 && quantity < 21, \"Mintable: quantity must be 1 - 20\");\n\n      uint256[20] memory _ids;\n        for (uint256 i = 0; i < quantity; i++) {\n            _ids[i] = _tokenIds.current();\n          _tokenIds.increment();\n        }\n\n      _safeMint(to, _ids);\n    }\n\n    /**\n     * @dev See {IERC721Metadata-tokenURI}.\n     */\n    function tokenURI(uint256 tokenId) public view virtual override returns (string memory) {\n        require(_exists(tokenId), \"Mintable: URI query for nonexistent token\");\n\n        string memory _tokenURI = _tokenURIs[tokenId];\n        string memory base = _baseURI();\n\n        // If there is no base URI, return the token URI.\n        if (bytes(base).length == 0) {\n            return _tokenURI;\n        }\n        // If both are set, concatenate the baseURI and tokenURI (via abi.encodePacked).\n        if (bytes(_tokenURI).length > 0) {\n            return string(abi.encodePacked(base, _tokenURI));\n        }\n\n        return super.tokenURI(tokenId);\n    }\n\n    function isStaked(uint256 tokenId) public view virtual returns (bool) {\n        return _stakedTokens[tokenId];\n    }\n\n    function stake(uint256 tokenId) public virtual whenNotStaked(tokenId) {\n        require(hasRole(MINTER_ROLE, _msgSender()), \"Mintable: must have minter role to stake\");\n      _stakedTokens[tokenId] = true;\n        emit Stake(tokenId, false);\n    }\n\n    function unstake(uint256 tokenId) public virtual whenStaked(tokenId) {\n        require(hasRole(MINTER_ROLE, _msgSender()), \"Mintable: must have minter role to stake\");\n      _stakedTokens[tokenId] = false;\n        emit Stake(tokenId, true);\n    }\n\n    /**\n     * @dev Pauses all token transfers.\n     *\n     * See {ERC721Pausable} and {Pausable-_pause}.\n     *\n     * Requirements:\n     *\n     * - the caller must have the `PAUSER_ROLE`.\n     */\n    function pause() public virtual {\n        require(hasRole(PAUSER_ROLE, _msgSender()), \"Mintable: must have pauser role to pause\");\n        _pause();\n    }\n\n    /**\n     * @dev Unpauses all token transfers.\n     *\n     * See {ERC721Pausable} and {Pausable-_unpause}.\n     *\n     * Requirements:\n     *\n     * - the caller must have the `PAUSER_ROLE`.\n     */\n    function unpause() public virtual {\n        require(hasRole(PAUSER_ROLE, _msgSender()), \"Mintable: must have pauser role to unpause\");\n        _unpause();\n    }\n\n    /**\n     * @dev Sets the base uri for all assets. This is here to reduce data\n     * storage by assigning a variable to repetative data.\n     *\n     * Requirements:\n     *\n     * - the caller must have the `DEFAULT_ADMIN_ROLE`.\n     */\n    function setBaseURI(string memory newBaseURI) external onlyAdmin() {\n        require(hasRole(DEFAULT_ADMIN_ROLE, _msgSender()), \"Mintable: must have minter role to stake\");\n      _setBaseURI(newBaseURI);\n    }\n\n    /**\n     * @dev Sets the token uri for all assets.\n     *\n     * Requirements:\n     *\n     * - the caller must have the `MINTER_ROLE`.\n     */\n    function setTokenURI(uint256 tokenId, string memory _tokenURI) external onlyAdmin() {\n        require(hasRole(MINTER_ROLE, _msgSender()), \"Mintable: must have minter role to stake\");\n      _setTokenURI(tokenId, _tokenURI);\n    }\n\n    /**\n     * @dev Sets the royalty information that all ids in this contract will default to.\n     *\n     * Requirements:\n     *\n     * - `receiver` cannot be the zero address.\n     * - `feeNumerator` cannot be greater than the fee denominator.\n     */\n    function setDefaultRoyalty(address receiver, uint96 feeNumerator) external onlyAdmin() {\n      _setDefaultRoyalty(receiver, feeNumerator);\n    }\n\n    /**\n     * @dev Sets `_tokenURI` as the tokenURI of `tokenId`.\n     *\n     * Requirements:\n     *\n     * - `tokenId` must exist.\n     */\n    function _setTokenURI(uint256 tokenId, string memory _tokenURI) internal virtual {\n        require(_exists(tokenId), \"Mintable: URI set of nonexistent token\");\n        _tokenURIs[tokenId] = _tokenURI;\n    }\n\n    /**\n     * @dev Hook that is called before any token transfer. This includes minting\n     * and burning.\n     *\n     * Calling conditions:\n     *\n     * - When `from` and `to` are both non-zero, ``from``'s `tokenId` will be\n     * transferred to `to`.\n     * - When `from` is zero, `tokenId` will be minted for `to`.\n     * - When `to` is zero, ``from``'s `tokenId` will be burned.\n     * - `from` and `to` are never both zero.\n     *\n     * To learn more about hooks, head to xref:ROOT:extending-contracts.adoc#using-hooks[Using Hooks].\n     */\n    function _beforeTokenTransfer(\n        address from,\n        address to,\n        uint256 tokenId\n    ) internal virtual override whenNotStaked(tokenId) {\n        require(!paused(), \"Pausable: token transfer while paused\");\n        super._beforeTokenTransfer(from, to, tokenId);\n    }\n\n    /**\n     * @dev See {IERC721Enumerable-tokenOfOwnerByIndex}.\n     */\n    function tokenOfOwnerByIndex(address owner, uint256 index) external view returns (uint256) {\n        return _tokenOfOwnerByIndex(owner, index);\n    }\n\n    /**\n     * @dev See {IERC721Enumerable-totalSupply}.\n     */\n    function totalSupply() public view returns (uint256) {\n    return _supply();\n    }\n\n    /**\n     * @dev See {IERC721Enumerable-tokenByIndex}.\n     */\n    function tokenByIndex(uint256 index) public view returns (uint256) {\n        require(index < _supply(), \"ERC721Enumerable: global index out of bounds\");\n        return index+1;\n    }\n\n    function _supply() internal view returns (uint256) {\n    return _tokenIds.current()-1;\n    }\n}\n\n",
  "sourcePath": "/Users/easterthebunny/Documents/ciphermountain/repositories/ac-evm-collection/contracts/ERC721EnumerablePausable.sol",
  "compiler": {
    "name": "solc",
    "version": "0.8.13+commit.abaa5c0e.Emscripten.clang"
  },
  "schemaVersion": "3.4.7",
  "updatedAt": "2022-06-09T16:48:32.243Z",
  "networkType": "ethereum",
  "devdoc": {
    "kind": "dev",
    "methods": {
      "approve(address,uint256)": {
        "details": "See {IERC721-approve}."
      },
      "balanceOf(address)": {
        "details": "See {IERC721-balanceOf}."
      },
      "constructor": {
        "details": "increments the counter on creation to start count at 1"
      },
      "getApproved(uint256)": {
        "details": "See {IERC721-getApproved}."
      },
      "getRoleAdmin(bytes32)": {
        "details": "Returns the admin role that controls `role`. See {grantRole} and {revokeRole}. To change a role's admin, use {_setRoleAdmin}."
      },
      "getRoleMember(bytes32,uint256)": {
        "details": "Returns one of the accounts that have `role`. `index` must be a value between 0 and {getRoleMemberCount}, non-inclusive. Role bearers are not sorted in any particular way, and their ordering may change at any point. WARNING: When using {getRoleMember} and {getRoleMemberCount}, make sure you perform all queries on the same block. See the following https://forum.openzeppelin.com/t/iterating-over-elements-on-enumerableset-in-openzeppelin-contracts/2296[forum post] for more information."
      },
      "getRoleMemberCount(bytes32)": {
        "details": "Returns the number of accounts that have `role`. Can be used together with {getRoleMember} to enumerate all bearers of a role."
      },
      "grantRole(bytes32,address)": {
        "details": "Grants `role` to `account`. If `account` had not been already granted `role`, emits a {RoleGranted} event. Requirements: - the caller must have ``role``'s admin role."
      },
      "hasRole(bytes32,address)": {
        "details": "Returns `true` if `account` has been granted `role`."
      },
      "isApprovedForAll(address,address)": {
        "details": "See {IERC721-isApprovedForAll}."
      },
      "isStaked(uint256)": {
        "details": "Returns whether or not the current token is staked"
      },
      "name()": {
        "details": "See {IERC721Metadata-name}."
      },
      "owner()": {
        "details": "Returns the address of the current owner."
      },
      "ownerOf(uint256)": {
        "details": "See {IERC721-ownerOf}."
      },
      "pause()": {
        "details": "Pauses all token transfers. See {ERC721Pausable} and {Pausable-_pause}. Requirements: - the caller must have the `PAUSER_ROLE`."
      },
      "paused()": {
        "details": "Returns true if the contract is paused, and false otherwise."
      },
      "renounceOwnership()": {
        "details": "Leaves the contract without owner. It will not be possible to call `onlyOwner` functions anymore. Can only be called by the current owner. NOTE: Renouncing ownership will leave the contract without an owner, thereby removing any functionality that is only available to the owner."
      },
      "renounceRole(bytes32,address)": {
        "details": "Revokes `role` from the calling account. Roles are often managed via {grantRole} and {revokeRole}: this function's purpose is to provide a mechanism for accounts to lose their privileges if they are compromised (such as when a trusted device is misplaced). If the calling account had been revoked `role`, emits a {RoleRevoked} event. Requirements: - the caller must be `account`."
      },
      "revokeRole(bytes32,address)": {
        "details": "Revokes `role` from `account`. If `account` had been granted `role`, emits a {RoleRevoked} event. Requirements: - the caller must have ``role``'s admin role."
      },
      "royaltyInfo(uint256,uint256)": {
        "details": "Returns how much royalty is owed and to whom, based on a sale price that may be denominated in any unit of exchange. The royalty amount is denominated and should be paid in that same unit of exchange."
      },
      "safeTransferFrom(address,address,uint256)": {
        "details": "See {IERC721-safeTransferFrom}."
      },
      "safeTransferFrom(address,address,uint256,bytes)": {
        "details": "See {IERC721-safeTransferFrom}."
      },
      "setApprovalForAll(address,bool)": {
        "details": "See {IERC721-setApprovalForAll}."
      },
      "setBaseURI(string)": {
        "details": "Sets the base uri for all assets. This is here to reduce data storage by assigning a variable to repetative data. Requirements: - the caller must have the `DEFAULT_ADMIN_ROLE`."
      },
      "setDefaultRoyalty(address,uint96)": {
        "details": "Sets the royalty information that all ids in this contract will default to. Requirements: - `receiver` cannot be the zero address. - `feeNumerator` cannot be greater than the fee denominator."
      },
      "setTokenURI(uint256,string)": {
        "details": "Sets the token uri for all assets. Requirements: - the caller must have the `MINTER_ROLE`."
      },
      "stake(uint256)": {
        "details": "Pauses activity for the specific token"
      },
      "supportsInterface(bytes4)": {
        "details": "See {IERC165-supportsInterface}."
      },
      "symbol()": {
        "details": "See {IERC721Metadata-symbol}."
      },
      "tokenByIndex(uint256)": {
        "details": "See {IERC721Enumerable-tokenByIndex}."
      },
      "tokenOfOwnerByIndex(address,uint256)": {
        "details": "See {IERC721Enumerable-tokenOfOwnerByIndex}."
      },
      "tokenURI(uint256)": {
        "details": "See {IERC721Metadata-tokenURI}."
      },
      "totalSupply()": {
        "details": "See {IERC721Enumerable-totalSupply}."
      },
      "transferFrom(address,address,uint256)": {
        "details": "See {IERC721-transferFrom}."
      },
      "transferOwnership(address)": {
        "details": "Transfers ownership of the contract to a new account (`newOwner`). Can only be called by the current owner."
      },
      "unpause()": {
        "details": "Unpauses all token transfers. See {ERC721Pausable} and {Pausable-_unpause}. Requirements: - the caller must have the `PAUSER_ROLE`."
      },
      "unstake(uint256)": {
        "details": "Resumes activity for the specific token"
      }
    },
    "version": 1
  },
  "userdoc": {
    "kind": "user",
    "methods": {},
    "version": 1
  }
}